{
  "_format": "hh-sol-artifact-1",
  "contractName": "TitleDeedTokenization",
  "sourceName": "contracts/tokenize.sol",
  "abi": [
    {
      "inputs": [
        {
          "internalType": "address",
          "name": "_landTitleRegistry",
          "type": "address"
        }
      ],
      "stateMutability": "nonpayable",
      "type": "constructor"
    },
    {
      "anonymous": false,
      "inputs": [
        {
          "indexed": true,
          "internalType": "address",
          "name": "owner",
          "type": "address"
        },
        {
          "indexed": true,
          "internalType": "address",
          "name": "approved",
          "type": "address"
        },
        {
          "indexed": true,
          "internalType": "uint256",
          "name": "tokenId",
          "type": "uint256"
        }
      ],
      "name": "Approval",
      "type": "event"
    },
    {
      "anonymous": false,
      "inputs": [
        {
          "indexed": true,
          "internalType": "address",
          "name": "owner",
          "type": "address"
        },
        {
          "indexed": true,
          "internalType": "address",
          "name": "operator",
          "type": "address"
        },
        {
          "indexed": false,
          "internalType": "bool",
          "name": "approved",
          "type": "bool"
        }
      ],
      "name": "ApprovalForAll",
      "type": "event"
    },
    {
      "anonymous": false,
      "inputs": [
        {
          "indexed": true,
          "internalType": "address",
          "name": "from",
          "type": "address"
        },
        {
          "indexed": true,
          "internalType": "address",
          "name": "to",
          "type": "address"
        },
        {
          "indexed": true,
          "internalType": "uint256",
          "name": "tokenId",
          "type": "uint256"
        }
      ],
      "name": "Transfer",
      "type": "event"
    },
    {
      "inputs": [
        {
          "internalType": "address",
          "name": "to",
          "type": "address"
        },
        {
          "internalType": "uint256",
          "name": "tokenId",
          "type": "uint256"
        }
      ],
      "name": "approve",
      "outputs": [],
      "stateMutability": "nonpayable",
      "type": "function"
    },
    {
      "inputs": [
        {
          "internalType": "address",
          "name": "owner",
          "type": "address"
        }
      ],
      "name": "balanceOf",
      "outputs": [
        {
          "internalType": "uint256",
          "name": "",
          "type": "uint256"
        }
      ],
      "stateMutability": "view",
      "type": "function"
    },
    {
      "inputs": [
        {
          "internalType": "uint256",
          "name": "tokenId",
          "type": "uint256"
        }
      ],
      "name": "getApproved",
      "outputs": [
        {
          "internalType": "address",
          "name": "",
          "type": "address"
        }
      ],
      "stateMutability": "view",
      "type": "function"
    },
    {
      "inputs": [
        {
          "internalType": "uint256",
          "name": "tokenId",
          "type": "uint256"
        }
      ],
      "name": "getDocumentHash",
      "outputs": [
        {
          "internalType": "string",
          "name": "",
          "type": "string"
        }
      ],
      "stateMutability": "view",
      "type": "function"
    },
    {
      "inputs": [
        {
          "internalType": "address",
          "name": "owner",
          "type": "address"
        },
        {
          "internalType": "address",
          "name": "operator",
          "type": "address"
        }
      ],
      "name": "isApprovedForAll",
      "outputs": [
        {
          "internalType": "bool",
          "name": "",
          "type": "bool"
        }
      ],
      "stateMutability": "view",
      "type": "function"
    },
    {
      "inputs": [],
      "name": "landTitleRegistry",
      "outputs": [
        {
          "internalType": "address",
          "name": "",
          "type": "address"
        }
      ],
      "stateMutability": "view",
      "type": "function"
    },
    {
      "inputs": [
        {
          "internalType": "address",
          "name": "to",
          "type": "address"
        },
        {
          "internalType": "string",
          "name": "documentHash",
          "type": "string"
        }
      ],
      "name": "mintToken",
      "outputs": [],
      "stateMutability": "nonpayable",
      "type": "function"
    },
    {
      "inputs": [],
      "name": "name",
      "outputs": [
        {
          "internalType": "string",
          "name": "",
          "type": "string"
        }
      ],
      "stateMutability": "view",
      "type": "function"
    },
    {
      "inputs": [],
      "name": "nextTokenId",
      "outputs": [
        {
          "internalType": "uint256",
          "name": "",
          "type": "uint256"
        }
      ],
      "stateMutability": "view",
      "type": "function"
    },
    {
      "inputs": [
        {
          "internalType": "uint256",
          "name": "tokenId",
          "type": "uint256"
        }
      ],
      "name": "ownerOf",
      "outputs": [
        {
          "internalType": "address",
          "name": "",
          "type": "address"
        }
      ],
      "stateMutability": "view",
      "type": "function"
    },
    {
      "inputs": [
        {
          "internalType": "address",
          "name": "from",
          "type": "address"
        },
        {
          "internalType": "address",
          "name": "to",
          "type": "address"
        },
        {
          "internalType": "uint256",
          "name": "tokenId",
          "type": "uint256"
        }
      ],
      "name": "safeTransferFrom",
      "outputs": [],
      "stateMutability": "nonpayable",
      "type": "function"
    },
    {
      "inputs": [
        {
          "internalType": "address",
          "name": "from",
          "type": "address"
        },
        {
          "internalType": "address",
          "name": "to",
          "type": "address"
        },
        {
          "internalType": "uint256",
          "name": "tokenId",
          "type": "uint256"
        },
        {
          "internalType": "bytes",
          "name": "data",
          "type": "bytes"
        }
      ],
      "name": "safeTransferFrom",
      "outputs": [],
      "stateMutability": "nonpayable",
      "type": "function"
    },
    {
      "inputs": [
        {
          "internalType": "address",
          "name": "operator",
          "type": "address"
        },
        {
          "internalType": "bool",
          "name": "approved",
          "type": "bool"
        }
      ],
      "name": "setApprovalForAll",
      "outputs": [],
      "stateMutability": "nonpayable",
      "type": "function"
    },
    {
      "inputs": [
        {
          "internalType": "bytes4",
          "name": "interfaceId",
          "type": "bytes4"
        }
      ],
      "name": "supportsInterface",
      "outputs": [
        {
          "internalType": "bool",
          "name": "",
          "type": "bool"
        }
      ],
      "stateMutability": "view",
      "type": "function"
    },
    {
      "inputs": [],
      "name": "symbol",
      "outputs": [
        {
          "internalType": "string",
          "name": "",
          "type": "string"
        }
      ],
      "stateMutability": "view",
      "type": "function"
    },
    {
      "inputs": [
        {
          "internalType": "uint256",
          "name": "",
          "type": "uint256"
        }
      ],
      "name": "tokenDocumentHashes",
      "outputs": [
        {
          "internalType": "string",
          "name": "",
          "type": "string"
        }
      ],
      "stateMutability": "view",
      "type": "function"
    },
    {
      "inputs": [
        {
          "internalType": "uint256",
          "name": "tokenId",
          "type": "uint256"
        }
      ],
      "name": "tokenURI",
      "outputs": [
        {
          "internalType": "string",
          "name": "",
          "type": "string"
        }
      ],
      "stateMutability": "view",
      "type": "function"
    },
    {
      "inputs": [
        {
          "internalType": "address",
          "name": "from",
          "type": "address"
        },
        {
          "internalType": "address",
          "name": "to",
          "type": "address"
        },
        {
          "internalType": "uint256",
          "name": "tokenId",
          "type": "uint256"
        }
      ],
      "name": "transferFrom",
      "outputs": [],
      "stateMutability": "nonpayable",
      "type": "function"
    }
  ],
  "bytecode": "0x60806040523480156200001157600080fd5b5060405162002d5338038062002d538339818101604052810190620000379190620001e6565b6040518060400160405280600e81526020017f5469746c6544656564546f6b656e0000000000000000000000000000000000008152506040518060400160405280600381526020017f54445400000000000000000000000000000000000000000000000000000000008152508160009080519060200190620000bb9291906200011f565b508060019080519060200190620000d49291906200011f565b50505080600760006101000a81548173ffffffffffffffffffffffffffffffffffffffff021916908373ffffffffffffffffffffffffffffffffffffffff16021790555050620002c5565b8280546200012d9062000246565b90600052602060002090601f0160209004810192826200015157600085556200019d565b82601f106200016c57805160ff19168380011785556200019d565b828001600101855582156200019d579182015b828111156200019c5782518255916020019190600101906200017f565b5b509050620001ac9190620001b0565b5090565b5b80821115620001cb576000816000905550600101620001b1565b5090565b600081519050620001e081620002ab565b92915050565b600060208284031215620001f957600080fd5b60006200020984828501620001cf565b91505092915050565b60006200021f8262000226565b9050919050565b600073ffffffffffffffffffffffffffffffffffffffff82169050919050565b600060028204905060018216806200025f57607f821691505b602082108114156200027657620002756200027c565b5b50919050565b7f4e487b7100000000000000000000000000000000000000000000000000000000600052602260045260246000fd5b620002b68162000212565b8114620002c257600080fd5b50565b612a7e80620002d56000396000f3fe608060405234801561001057600080fd5b50600436106101165760003560e01c806370a08231116100a257806395d89b411161007157806395d89b4114610305578063a22cb46514610323578063b88d4fde1461033f578063c87b56dd1461035b578063e985e9c51461038b57610116565b806370a082311461025757806375794a3c1461028757806380964805146102a55780638796ec86146102d557610116565b806323b872dd116100e957806323b872dd146101b55780632e950ae3146101d15780633d02d0c9146101ef57806342842e0e1461020b5780636352211e1461022757610116565b806301ffc9a71461011b57806306fdde031461014b578063081812fc14610169578063095ea7b314610199575b600080fd5b61013560048036038101906101309190611eda565b6103bb565b6040516101429190612254565b60405180910390f35b61015361049d565b604051610160919061226f565b60405180910390f35b610183600480360381019061017e9190611f2c565b61052f565b60405161019091906121ed565b60405180910390f35b6101b360048036038101906101ae9190611e9e565b610575565b005b6101cf60048036038101906101ca9190611d44565b61068d565b005b6101d96106ed565b6040516101e691906121ed565b60405180910390f35b61020960048036038101906102049190611e4a565b610713565b005b61022560048036038101906102209190611d44565b610769565b005b610241600480360381019061023c9190611f2c565b610789565b60405161024e91906121ed565b60405180910390f35b610271600480360381019061026c9190611cdf565b610810565b60405161027e9190612411565b60405180910390f35b61028f6108c8565b60405161029c9190612411565b60405180910390f35b6102bf60048036038101906102ba9190611f2c565b6108ce565b6040516102cc919061226f565b60405180910390f35b6102ef60048036038101906102ea9190611f2c565b61096e565b6040516102fc919061226f565b60405180910390f35b61030d610a5b565b60405161031a919061226f565b60405180910390f35b61033d60048036038101906103389190611e0e565b610aed565b005b61035960048036038101906103549190611d93565b610b03565b005b61037560048036038101906103709190611f2c565b610b65565b604051610382919061226f565b60405180910390f35b6103a560048036038101906103a09190611d08565b610bcd565b6040516103b29190612254565b60405180910390f35b60007f80ac58cd000000000000000000000000000000000000000000000000000000007bffffffffffffffffffffffffffffffffffffffffffffffffffffffff1916827bffffffffffffffffffffffffffffffffffffffffffffffffffffffff1916148061048657507f5b5e139f000000000000000000000000000000000000000000000000000000007bffffffffffffffffffffffffffffffffffffffffffffffffffffffff1916827bffffffffffffffffffffffffffffffffffffffffffffffffffffffff1916145b80610496575061049582610c61565b5b9050919050565b6060600080546104ac906125ac565b80601f01602080910402602001604051908101604052809291908181526020018280546104d8906125ac565b80156105255780601f106104fa57610100808354040283529160200191610525565b820191906000526020600020905b81548152906001019060200180831161050857829003601f168201915b5050505050905090565b600061053a82610ccb565b6004600083815260200190815260200160002060009054906101000a900473ffffffffffffffffffffffffffffffffffffffff169050919050565b600061058082610789565b90508073ffffffffffffffffffffffffffffffffffffffff168373ffffffffffffffffffffffffffffffffffffffff1614156105f1576040517f08c379a00000000000000000000000000000000000000000000000000000000081526004016105e8906123d1565b60405180910390fd5b8073ffffffffffffffffffffffffffffffffffffffff16610610610d16565b73ffffffffffffffffffffffffffffffffffffffff16148061063f575061063e81610639610d16565b610bcd565b5b61067e576040517f08c379a0000000000000000000000000000000000000000000000000000000008152600401610675906123f1565b60405180910390fd5b6106888383610d1e565b505050565b61069e610698610d16565b82610dd7565b6106dd576040517f08c379a00000000000000000000000000000000000000000000000000000000081526004016106d490612291565b60405180910390fd5b6106e8838383610e6c565b505050565b600760009054906101000a900473ffffffffffffffffffffffffffffffffffffffff1681565b600060065490506006600081548092919061072d9061260f565b919050555061073c8382611166565b81600860008381526020019081526020016000209080519060200190610763929190611b03565b50505050565b61078483838360405180602001604052806000815250610b03565b505050565b60008061079583611384565b9050600073ffffffffffffffffffffffffffffffffffffffff168173ffffffffffffffffffffffffffffffffffffffff161415610807576040517f08c379a00000000000000000000000000000000000000000000000000000000081526004016107fe906123b1565b60405180910390fd5b80915050919050565b60008073ffffffffffffffffffffffffffffffffffffffff168273ffffffffffffffffffffffffffffffffffffffff161415610881576040517f08c379a000000000000000000000000000000000000000000000000000000000815260040161087890612371565b60405180910390fd5b600360008373ffffffffffffffffffffffffffffffffffffffff1673ffffffffffffffffffffffffffffffffffffffff168152602001908152602001600020549050919050565b60065481565b600860205280600052604060002060009150905080546108ed906125ac565b80601f0160208091040260200160405190810160405280929190818152602001828054610919906125ac565b80156109665780601f1061093b57610100808354040283529160200191610966565b820191906000526020600020905b81548152906001019060200180831161094957829003601f168201915b505050505081565b6060610979826113c1565b6109b8576040517f08c379a00000000000000000000000000000000000000000000000000000000081526004016109af90612351565b60405180910390fd5b6008600083815260200190815260200160002080546109d6906125ac565b80601f0160208091040260200160405190810160405280929190818152602001828054610a02906125ac565b8015610a4f5780601f10610a2457610100808354040283529160200191610a4f565b820191906000526020600020905b815481529060010190602001808311610a3257829003601f168201915b50505050509050919050565b606060018054610a6a906125ac565b80601f0160208091040260200160405190810160405280929190818152602001828054610a96906125ac565b8015610ae35780601f10610ab857610100808354040283529160200191610ae3565b820191906000526020600020905b815481529060010190602001808311610ac657829003601f168201915b5050505050905090565b610aff610af8610d16565b8383611402565b5050565b610b14610b0e610d16565b83610dd7565b610b53576040517f08c379a0000000000000000000000000000000000000000000000000000000008152600401610b4a90612291565b60405180910390fd5b610b5f8484848461156f565b50505050565b6060610b7082610ccb565b6000610b7a6115cb565b90506000815111610b9a5760405180602001604052806000815250610bc5565b80610ba4846115e2565b604051602001610bb59291906121c9565b6040516020818303038152906040525b915050919050565b6000600560008473ffffffffffffffffffffffffffffffffffffffff1673ffffffffffffffffffffffffffffffffffffffff16815260200190815260200160002060008373ffffffffffffffffffffffffffffffffffffffff1673ffffffffffffffffffffffffffffffffffffffff16815260200190815260200160002060009054906101000a900460ff16905092915050565b60007f01ffc9a7000000000000000000000000000000000000000000000000000000007bffffffffffffffffffffffffffffffffffffffffffffffffffffffff1916827bffffffffffffffffffffffffffffffffffffffffffffffffffffffff1916149050919050565b610cd4816113c1565b610d13576040517f08c379a0000000000000000000000000000000000000000000000000000000008152600401610d0a906123b1565b60405180910390fd5b50565b600033905090565b816004600083815260200190815260200160002060006101000a81548173ffffffffffffffffffffffffffffffffffffffff021916908373ffffffffffffffffffffffffffffffffffffffff160217905550808273ffffffffffffffffffffffffffffffffffffffff16610d9183610789565b73ffffffffffffffffffffffffffffffffffffffff167f8c5be1e5ebec7d5bd14f71427d1e84f3dd0314c0f7b2291e5b200ac8c7c3b92560405160405180910390a45050565b600080610de383610789565b90508073ffffffffffffffffffffffffffffffffffffffff168473ffffffffffffffffffffffffffffffffffffffff161480610e255750610e248185610bcd565b5b80610e6357508373ffffffffffffffffffffffffffffffffffffffff16610e4b8461052f565b73ffffffffffffffffffffffffffffffffffffffff16145b91505092915050565b8273ffffffffffffffffffffffffffffffffffffffff16610e8c82610789565b73ffffffffffffffffffffffffffffffffffffffff1614610ee2576040517f08c379a0000000000000000000000000000000000000000000000000000000008152600401610ed9906122d1565b60405180910390fd5b600073ffffffffffffffffffffffffffffffffffffffff168273ffffffffffffffffffffffffffffffffffffffff161415610f52576040517f08c379a0000000000000000000000000000000000000000000000000000000008152600401610f4990612311565b60405180910390fd5b610f5f8383836001611706565b8273ffffffffffffffffffffffffffffffffffffffff16610f7f82610789565b73ffffffffffffffffffffffffffffffffffffffff1614610fd5576040517f08c379a0000000000000000000000000000000000000000000000000000000008152600401610fcc906122d1565b60405180910390fd5b6004600082815260200190815260200160002060006101000a81549073ffffffffffffffffffffffffffffffffffffffff02191690556001600360008573ffffffffffffffffffffffffffffffffffffffff1673ffffffffffffffffffffffffffffffffffffffff168152602001908152602001600020600082825403925050819055506001600360008473ffffffffffffffffffffffffffffffffffffffff1673ffffffffffffffffffffffffffffffffffffffff16815260200190815260200160002060008282540192505081905550816002600083815260200190815260200160002060006101000a81548173ffffffffffffffffffffffffffffffffffffffff021916908373ffffffffffffffffffffffffffffffffffffffff160217905550808273ffffffffffffffffffffffffffffffffffffffff168473ffffffffffffffffffffffffffffffffffffffff167fddf252ad1be2c89b69c2b068fc378daa952ba7f163c4a11628f55a4df523b3ef60405160405180910390a4611161838383600161170c565b505050565b600073ffffffffffffffffffffffffffffffffffffffff168273ffffffffffffffffffffffffffffffffffffffff1614156111d6576040517f08c379a00000000000000000000000000000000000000000000000000000000081526004016111cd90612391565b60405180910390fd5b6111df816113c1565b1561121f576040517f08c379a0000000000000000000000000000000000000000000000000000000008152600401611216906122f1565b60405180910390fd5b61122d600083836001611706565b611236816113c1565b15611276576040517f08c379a000000000000000000000000000000000000000000000000000000000815260040161126d906122f1565b60405180910390fd5b6001600360008473ffffffffffffffffffffffffffffffffffffffff1673ffffffffffffffffffffffffffffffffffffffff16815260200190815260200160002060008282540192505081905550816002600083815260200190815260200160002060006101000a81548173ffffffffffffffffffffffffffffffffffffffff021916908373ffffffffffffffffffffffffffffffffffffffff160217905550808273ffffffffffffffffffffffffffffffffffffffff16600073ffffffffffffffffffffffffffffffffffffffff167fddf252ad1be2c89b69c2b068fc378daa952ba7f163c4a11628f55a4df523b3ef60405160405180910390a461138060008383600161170c565b5050565b60006002600083815260200190815260200160002060009054906101000a900473ffffffffffffffffffffffffffffffffffffffff169050919050565b60008073ffffffffffffffffffffffffffffffffffffffff166113e383611384565b73ffffffffffffffffffffffffffffffffffffffff1614159050919050565b8173ffffffffffffffffffffffffffffffffffffffff168373ffffffffffffffffffffffffffffffffffffffff161415611471576040517f08c379a000000000000000000000000000000000000000000000000000000000815260040161146890612331565b60405180910390fd5b80600560008573ffffffffffffffffffffffffffffffffffffffff1673ffffffffffffffffffffffffffffffffffffffff16815260200190815260200160002060008473ffffffffffffffffffffffffffffffffffffffff1673ffffffffffffffffffffffffffffffffffffffff16815260200190815260200160002060006101000a81548160ff0219169083151502179055508173ffffffffffffffffffffffffffffffffffffffff168373ffffffffffffffffffffffffffffffffffffffff167f17307eab39ab6107e8899845ad3d59bd9653f200f220920489ca2b5937696c31836040516115629190612254565b60405180910390a3505050565b61157a848484610e6c565b61158684848484611712565b6115c5576040517f08c379a00000000000000000000000000000000000000000000000000000000081526004016115bc906122b1565b60405180910390fd5b50505050565b606060405180602001604052806000815250905090565b6060600060016115f1846118a9565b01905060008167ffffffffffffffff811115611636577f4e487b7100000000000000000000000000000000000000000000000000000000600052604160045260246000fd5b6040519080825280601f01601f1916602001820160405280156116685781602001600182028036833780820191505090505b509050600082602001820190505b6001156116fb578080600190039150507f3031323334353637383961626364656600000000000000000000000000000000600a86061a8153600a85816116e5577f4e487b7100000000000000000000000000000000000000000000000000000000600052601260045260246000fd5b04945060008514156116f6576116fb565b611676565b819350505050919050565b50505050565b50505050565b60006117338473ffffffffffffffffffffffffffffffffffffffff16611ae0565b1561189c578373ffffffffffffffffffffffffffffffffffffffff1663150b7a0261175c610d16565b8786866040518563ffffffff1660e01b815260040161177e9493929190612208565b602060405180830381600087803b15801561179857600080fd5b505af19250505080156117c957506040513d601f19601f820116820180604052508101906117c69190611f03565b60015b61184c573d80600081146117f9576040519150601f19603f3d011682016040523d82523d6000602084013e6117fe565b606091505b50600081511415611844576040517f08c379a000000000000000000000000000000000000000000000000000000000815260040161183b906122b1565b60405180910390fd5b805181602001fd5b63150b7a0260e01b7bffffffffffffffffffffffffffffffffffffffffffffffffffffffff1916817bffffffffffffffffffffffffffffffffffffffffffffffffffffffff1916149150506118a1565b600190505b949350505050565b600080600090507a184f03e93ff9f4daa797ed6e38ed64bf6a1f010000000000000000831061192d577a184f03e93ff9f4daa797ed6e38ed64bf6a1f0100000000000000008381611923577f4e487b7100000000000000000000000000000000000000000000000000000000600052601260045260246000fd5b0492506040810190505b6d04ee2d6d415b85acef81000000008310611990576d04ee2d6d415b85acef81000000008381611986577f4e487b7100000000000000000000000000000000000000000000000000000000600052601260045260246000fd5b0492506020810190505b662386f26fc1000083106119e557662386f26fc1000083816119db577f4e487b7100000000000000000000000000000000000000000000000000000000600052601260045260246000fd5b0492506010810190505b6305f5e1008310611a34576305f5e1008381611a2a577f4e487b7100000000000000000000000000000000000000000000000000000000600052601260045260246000fd5b0492506008810190505b6127108310611a7f576127108381611a75577f4e487b7100000000000000000000000000000000000000000000000000000000600052601260045260246000fd5b0492506004810190505b60648310611ac85760648381611abe577f4e487b7100000000000000000000000000000000000000000000000000000000600052601260045260246000fd5b0492506002810190505b600a8310611ad7576001810190505b80915050919050565b6000808273ffffffffffffffffffffffffffffffffffffffff163b119050919050565b828054611b0f906125ac565b90600052602060002090601f016020900481019282611b315760008555611b78565b82601f10611b4a57805160ff1916838001178555611b78565b82800160010185558215611b78579182015b82811115611b77578251825591602001919060010190611b5c565b5b509050611b859190611b89565b5090565b5b80821115611ba2576000816000905550600101611b8a565b5090565b6000611bb9611bb484612451565b61242c565b905082815260208101848484011115611bd157600080fd5b611bdc84828561256a565b509392505050565b6000611bf7611bf284612482565b61242c565b905082815260208101848484011115611c0f57600080fd5b611c1a84828561256a565b509392505050565b600081359050611c31816129ec565b92915050565b600081359050611c4681612a03565b92915050565b600081359050611c5b81612a1a565b92915050565b600081519050611c7081612a1a565b92915050565b600082601f830112611c8757600080fd5b8135611c97848260208601611ba6565b91505092915050565b600082601f830112611cb157600080fd5b8135611cc1848260208601611be4565b91505092915050565b600081359050611cd981612a31565b92915050565b600060208284031215611cf157600080fd5b6000611cff84828501611c22565b91505092915050565b60008060408385031215611d1b57600080fd5b6000611d2985828601611c22565b9250506020611d3a85828601611c22565b9150509250929050565b600080600060608486031215611d5957600080fd5b6000611d6786828701611c22565b9350506020611d7886828701611c22565b9250506040611d8986828701611cca565b9150509250925092565b60008060008060808587031215611da957600080fd5b6000611db787828801611c22565b9450506020611dc887828801611c22565b9350506040611dd987828801611cca565b925050606085013567ffffffffffffffff811115611df657600080fd5b611e0287828801611c76565b91505092959194509250565b60008060408385031215611e2157600080fd5b6000611e2f85828601611c22565b9250506020611e4085828601611c37565b9150509250929050565b60008060408385031215611e5d57600080fd5b6000611e6b85828601611c22565b925050602083013567ffffffffffffffff811115611e8857600080fd5b611e9485828601611ca0565b9150509250929050565b60008060408385031215611eb157600080fd5b6000611ebf85828601611c22565b9250506020611ed085828601611cca565b9150509250929050565b600060208284031215611eec57600080fd5b6000611efa84828501611c4c565b91505092915050565b600060208284031215611f1557600080fd5b6000611f2384828501611c61565b91505092915050565b600060208284031215611f3e57600080fd5b6000611f4c84828501611cca565b91505092915050565b611f5e816124f6565b82525050565b611f6d81612508565b82525050565b6000611f7e826124b3565b611f8881856124c9565b9350611f98818560208601612579565b611fa1816126e5565b840191505092915050565b6000611fb7826124be565b611fc181856124da565b9350611fd1818560208601612579565b611fda816126e5565b840191505092915050565b6000611ff0826124be565b611ffa81856124eb565b935061200a818560208601612579565b80840191505092915050565b6000612023602d836124da565b915061202e826126f6565b604082019050919050565b60006120466032836124da565b915061205182612745565b604082019050919050565b60006120696025836124da565b915061207482612794565b604082019050919050565b600061208c601c836124da565b9150612097826127e3565b602082019050919050565b60006120af6024836124da565b91506120ba8261280c565b604082019050919050565b60006120d26019836124da565b91506120dd8261285b565b602082019050919050565b60006120f56014836124da565b915061210082612884565b602082019050919050565b60006121186029836124da565b9150612123826128ad565b604082019050919050565b600061213b6020836124da565b9150612146826128fc565b602082019050919050565b600061215e6018836124da565b915061216982612925565b602082019050919050565b60006121816021836124da565b915061218c8261294e565b604082019050919050565b60006121a4603d836124da565b91506121af8261299d565b604082019050919050565b6121c381612560565b82525050565b60006121d58285611fe5565b91506121e18284611fe5565b91508190509392505050565b60006020820190506122026000830184611f55565b92915050565b600060808201905061221d6000830187611f55565b61222a6020830186611f55565b61223760408301856121ba565b81810360608301526122498184611f73565b905095945050505050565b60006020820190506122696000830184611f64565b92915050565b600060208201905081810360008301526122898184611fac565b905092915050565b600060208201905081810360008301526122aa81612016565b9050919050565b600060208201905081810360008301526122ca81612039565b9050919050565b600060208201905081810360008301526122ea8161205c565b9050919050565b6000602082019050818103600083015261230a8161207f565b9050919050565b6000602082019050818103600083015261232a816120a2565b9050919050565b6000602082019050818103600083015261234a816120c5565b9050919050565b6000602082019050818103600083015261236a816120e8565b9050919050565b6000602082019050818103600083015261238a8161210b565b9050919050565b600060208201905081810360008301526123aa8161212e565b9050919050565b600060208201905081810360008301526123ca81612151565b9050919050565b600060208201905081810360008301526123ea81612174565b9050919050565b6000602082019050818103600083015261240a81612197565b9050919050565b600060208201905061242660008301846121ba565b92915050565b6000612436612447565b905061244282826125de565b919050565b6000604051905090565b600067ffffffffffffffff82111561246c5761246b6126b6565b5b612475826126e5565b9050602081019050919050565b600067ffffffffffffffff82111561249d5761249c6126b6565b5b6124a6826126e5565b9050602081019050919050565b600081519050919050565b600081519050919050565b600082825260208201905092915050565b600082825260208201905092915050565b600081905092915050565b600061250182612540565b9050919050565b60008115159050919050565b60007fffffffff0000000000000000000000000000000000000000000000000000000082169050919050565b600073ffffffffffffffffffffffffffffffffffffffff82169050919050565b6000819050919050565b82818337600083830152505050565b60005b8381101561259757808201518184015260208101905061257c565b838111156125a6576000848401525b50505050565b600060028204905060018216806125c457607f821691505b602082108114156125d8576125d7612687565b5b50919050565b6125e7826126e5565b810181811067ffffffffffffffff82111715612606576126056126b6565b5b80604052505050565b600061261a82612560565b91507fffffffffffffffffffffffffffffffffffffffffffffffffffffffffffffffff82141561264d5761264c612658565b5b600182019050919050565b7f4e487b7100000000000000000000000000000000000000000000000000000000600052601160045260246000fd5b7f4e487b7100000000000000000000000000000000000000000000000000000000600052602260045260246000fd5b7f4e487b7100000000000000000000000000000000000000000000000000000000600052604160045260246000fd5b6000601f19601f8301169050919050565b7f4552433732313a2063616c6c6572206973206e6f7420746f6b656e206f776e6560008201527f72206f7220617070726f76656400000000000000000000000000000000000000602082015250565b7f4552433732313a207472616e7366657220746f206e6f6e20455243373231526560008201527f63656976657220696d706c656d656e7465720000000000000000000000000000602082015250565b7f4552433732313a207472616e736665722066726f6d20696e636f72726563742060008201527f6f776e6572000000000000000000000000000000000000000000000000000000602082015250565b7f4552433732313a20746f6b656e20616c7265616479206d696e74656400000000600082015250565b7f4552433732313a207472616e7366657220746f20746865207a65726f2061646460008201527f7265737300000000000000000000000000000000000000000000000000000000602082015250565b7f4552433732313a20617070726f766520746f2063616c6c657200000000000000600082015250565b7f546f6b656e20646f6573206e6f74206578697374000000000000000000000000600082015250565b7f4552433732313a2061646472657373207a65726f206973206e6f74206120766160008201527f6c6964206f776e65720000000000000000000000000000000000000000000000602082015250565b7f4552433732313a206d696e7420746f20746865207a65726f2061646472657373600082015250565b7f4552433732313a20696e76616c696420746f6b656e2049440000000000000000600082015250565b7f4552433732313a20617070726f76616c20746f2063757272656e74206f776e6560008201527f7200000000000000000000000000000000000000000000000000000000000000602082015250565b7f4552433732313a20617070726f76652063616c6c6572206973206e6f7420746f60008201527f6b656e206f776e6572206f7220617070726f76656420666f7220616c6c000000602082015250565b6129f5816124f6565b8114612a0057600080fd5b50565b612a0c81612508565b8114612a1757600080fd5b50565b612a2381612514565b8114612a2e57600080fd5b50565b612a3a81612560565b8114612a4557600080fd5b5056fea264697066735822122092e3400b1f1852d72d105bd29209e78f62ab61fc559424812192c5571ce43c5564736f6c63430008040033",
  "linkReferences": {},
  "deployedLinkReferences": {}
}