{
  "_format": "hh-sol-artifact-1",
  "contractName": "LandTitleRegistry",
  "sourceName": "contracts/titledeeds.sol",
  "abi": [
    {
      "inputs": [],
      "stateMutability": "nonpayable",
      "type": "constructor"
    },
    {
      "anonymous": false,
      "inputs": [
        {
          "indexed": true,
          "internalType": "uint256",
          "name": "id",
          "type": "uint256"
        }
      ],
      "name": "LandTitleNotRegistered",
      "type": "event"
    },
    {
      "anonymous": false,
      "inputs": [
        {
          "indexed": true,
          "internalType": "uint256",
          "name": "id",
          "type": "uint256"
        },
        {
          "indexed": true,
          "internalType": "address",
          "name": "newOwnerAddress",
          "type": "address"
        },
        {
          "indexed": false,
          "internalType": "string",
          "name": "newLocation",
          "type": "string"
        },
        {
          "indexed": false,
          "internalType": "uint256",
          "name": "newArea",
          "type": "uint256"
        },
        {
          "indexed": false,
          "internalType": "string",
          "name": "newDocumentHash",
          "type": "string"
        }
      ],
      "name": "LandTitleUpdated",
      "type": "event"
    },
    {
      "inputs": [
        {
          "internalType": "uint256",
          "name": "_id",
          "type": "uint256"
        }
      ],
      "name": "getLandDetails",
      "outputs": [
        {
          "internalType": "bool",
          "name": "isRegistered",
          "type": "bool"
        },
        {
          "internalType": "address",
          "name": "ownerAddress",
          "type": "address"
        },
        {
          "internalType": "string",
          "name": "location",
          "type": "string"
        },
        {
          "internalType": "uint256",
          "name": "area",
          "type": "uint256"
        },
        {
          "internalType": "string",
          "name": "documentHash",
          "type": "string"
        }
      ],
      "stateMutability": "view",
      "type": "function"
    },
    {
      "inputs": [],
      "name": "government",
      "outputs": [
        {
          "internalType": "address",
          "name": "",
          "type": "address"
        }
      ],
      "stateMutability": "view",
      "type": "function"
    },
    {
      "inputs": [
        {
          "internalType": "uint256",
          "name": "",
          "type": "uint256"
        }
      ],
      "name": "landTitles",
      "outputs": [
        {
          "internalType": "bool",
          "name": "isRegistered",
          "type": "bool"
        },
        {
          "internalType": "address",
          "name": "ownerAddress",
          "type": "address"
        },
        {
          "internalType": "string",
          "name": "location",
          "type": "string"
        },
        {
          "internalType": "uint256",
          "name": "area",
          "type": "uint256"
        },
        {
          "internalType": "string",
          "name": "documentHash",
          "type": "string"
        }
      ],
      "stateMutability": "view",
      "type": "function"
    },
    {
      "inputs": [
        {
          "internalType": "uint256",
          "name": "_id",
          "type": "uint256"
        },
        {
          "internalType": "address",
          "name": "_ownerAddress",
          "type": "address"
        },
        {
          "internalType": "string",
          "name": "_location",
          "type": "string"
        },
        {
          "internalType": "uint256",
          "name": "_area",
          "type": "uint256"
        },
        {
          "internalType": "string",
          "name": "_documentHash",
          "type": "string"
        }
      ],
      "name": "registerLandTitle",
      "outputs": [],
      "stateMutability": "nonpayable",
      "type": "function"
    },
    {
      "inputs": [
        {
          "internalType": "uint256",
          "name": "_id",
          "type": "uint256"
        },
        {
          "internalType": "address",
          "name": "_newOwnerAddress",
          "type": "address"
        },
        {
          "internalType": "string",
          "name": "_newLocation",
          "type": "string"
        },
        {
          "internalType": "uint256",
          "name": "_newArea",
          "type": "uint256"
        },
        {
          "internalType": "string",
          "name": "_newDocumentHash",
          "type": "string"
        }
      ],
      "name": "updateLandDetails",
      "outputs": [],
      "stateMutability": "nonpayable",
      "type": "function"
    }
  ],
  "bytecode": "0x608060405234801561001057600080fd5b5033600160006101000a81548173ffffffffffffffffffffffffffffffffffffffff021916908373ffffffffffffffffffffffffffffffffffffffff160217905550611028806100616000396000f3fe608060405234801561001057600080fd5b50600436106100575760003560e01c80630b8d438c1461005c5780632672f5261461009057806349f3ef0b146100ae578063a79a6cc3146100ca578063fe0cb7dc146100e6575b600080fd5b61007660048036038101906100719190610a29565b61011a565b604051610087959493929190610c06565b60405180910390f35b61009861028d565b6040516100a59190610beb565b60405180910390f35b6100c860048036038101906100c39190610a52565b6102b3565b005b6100e460048036038101906100df9190610a52565b6104d7565b005b61010060048036038101906100fb9190610a29565b610714565b604051610111959493929190610c06565b60405180910390f35b60006020528060005260406000206000915090508060000160009054906101000a900460ff16908060000160019054906101000a900473ffffffffffffffffffffffffffffffffffffffff169080600101805461017690610e28565b80601f01602080910402602001604051908101604052809291908181526020018280546101a290610e28565b80156101ef5780601f106101c4576101008083540402835291602001916101ef565b820191906000526020600020905b8154815290600101906020018083116101d257829003601f168201915b50505050509080600201549080600301805461020a90610e28565b80601f016020809104026020016040519081016040528092919081815260200182805461023690610e28565b80156102835780601f1061025857610100808354040283529160200191610283565b820191906000526020600020905b81548152906001019060200180831161026657829003601f168201915b5050505050905085565b600160009054906101000a900473ffffffffffffffffffffffffffffffffffffffff1681565b600160009054906101000a900473ffffffffffffffffffffffffffffffffffffffff1673ffffffffffffffffffffffffffffffffffffffff163373ffffffffffffffffffffffffffffffffffffffff1614610343576040517f08c379a000000000000000000000000000000000000000000000000000000000815260040161033a90610cac565b60405180910390fd5b60008086815260200190815260200160002060000160009054906101000a900460ff166103a5576040517f08c379a000000000000000000000000000000000000000000000000000000000815260040161039c90610ccc565b60405180910390fd5b600082116103e8576040517f08c379a00000000000000000000000000000000000000000000000000000000081526004016103df90610cec565b60405180910390fd5b60008060008781526020019081526020016000209050848160000160016101000a81548173ffffffffffffffffffffffffffffffffffffffff021916908373ffffffffffffffffffffffffffffffffffffffff160217905550838160010190805190602001906104599291906108f4565b508281600201819055508181600301908051906020019061047b9291906108f4565b508473ffffffffffffffffffffffffffffffffffffffff16867f91ee569fe4ab879f41ab0616255c5112e5a1c908d02d7b0bc31cf386c98384348686866040516104c793929190610c67565b60405180910390a3505050505050565b600160009054906101000a900473ffffffffffffffffffffffffffffffffffffffff1673ffffffffffffffffffffffffffffffffffffffff163373ffffffffffffffffffffffffffffffffffffffff1614610567576040517f08c379a000000000000000000000000000000000000000000000000000000000815260040161055e90610cac565b60405180910390fd5b60008086815260200190815260200160002060000160009054906101000a900460ff16156105ca576040517f08c379a00000000000000000000000000000000000000000000000000000000081526004016105c190610d0c565b60405180910390fd5b6000821161060d576040517f08c379a000000000000000000000000000000000000000000000000000000000815260040161060490610cec565b60405180910390fd5b6040518060a001604052806001151581526020018573ffffffffffffffffffffffffffffffffffffffff1681526020018481526020018381526020018281525060008087815260200190815260200160002060008201518160000160006101000a81548160ff02191690831515021790555060208201518160000160016101000a81548173ffffffffffffffffffffffffffffffffffffffff021916908373ffffffffffffffffffffffffffffffffffffffff16021790555060408201518160010190805190602001906106e29291906108f4565b506060820151816002015560808201518160030190805190602001906107099291906108f4565b509050505050505050565b600080606060006060600080600088815260200190815260200160002090508060000160009054906101000a900460ff16610784576040517f08c379a000000000000000000000000000000000000000000000000000000000815260040161077b90610ccc565b60405180910390fd5b8060000160009054906101000a900460ff168160000160019054906101000a900473ffffffffffffffffffffffffffffffffffffffff16826001018360020154846003018280546107d490610e28565b80601f016020809104026020016040519081016040528092919081815260200182805461080090610e28565b801561084d5780601f106108225761010080835404028352916020019161084d565b820191906000526020600020905b81548152906001019060200180831161083057829003601f168201915b5050505050925080805461086090610e28565b80601f016020809104026020016040519081016040528092919081815260200182805461088c90610e28565b80156108d95780601f106108ae576101008083540402835291602001916108d9565b820191906000526020600020905b8154815290600101906020018083116108bc57829003601f168201915b50505050509050955095509550955095505091939590929450565b82805461090090610e28565b90600052602060002090601f0160209004810192826109225760008555610969565b82601f1061093b57805160ff1916838001178555610969565b82800160010185558215610969579182015b8281111561096857825182559160200191906001019061094d565b5b509050610976919061097a565b5090565b5b8082111561099357600081600090555060010161097b565b5090565b60006109aa6109a584610d51565b610d2c565b9050828152602081018484840111156109c257600080fd5b6109cd848285610de6565b509392505050565b6000813590506109e481610fc4565b92915050565b600082601f8301126109fb57600080fd5b8135610a0b848260208601610997565b91505092915050565b600081359050610a2381610fdb565b92915050565b600060208284031215610a3b57600080fd5b6000610a4984828501610a14565b91505092915050565b600080600080600060a08688031215610a6a57600080fd5b6000610a7888828901610a14565b9550506020610a89888289016109d5565b945050604086013567ffffffffffffffff811115610aa657600080fd5b610ab2888289016109ea565b9350506060610ac388828901610a14565b925050608086013567ffffffffffffffff811115610ae057600080fd5b610aec888289016109ea565b9150509295509295909350565b610b0281610d9e565b82525050565b610b1181610db0565b82525050565b6000610b2282610d82565b610b2c8185610d8d565b9350610b3c818560208601610df5565b610b4581610ee9565b840191505092915050565b6000610b5d602a83610d8d565b9150610b6882610efa565b604082019050919050565b6000610b80601983610d8d565b9150610b8b82610f49565b602082019050919050565b6000610ba3601b83610d8d565b9150610bae82610f72565b602082019050919050565b6000610bc6601d83610d8d565b9150610bd182610f9b565b602082019050919050565b610be581610ddc565b82525050565b6000602082019050610c006000830184610af9565b92915050565b600060a082019050610c1b6000830188610b08565b610c286020830187610af9565b8181036040830152610c3a8186610b17565b9050610c496060830185610bdc565b8181036080830152610c5b8184610b17565b90509695505050505050565b60006060820190508181036000830152610c818186610b17565b9050610c906020830185610bdc565b8181036040830152610ca28184610b17565b9050949350505050565b60006020820190508181036000830152610cc581610b50565b9050919050565b60006020820190508181036000830152610ce581610b73565b9050919050565b60006020820190508181036000830152610d0581610b96565b9050919050565b60006020820190508181036000830152610d2581610bb9565b9050919050565b6000610d36610d47565b9050610d428282610e5a565b919050565b6000604051905090565b600067ffffffffffffffff821115610d6c57610d6b610eba565b5b610d7582610ee9565b9050602081019050919050565b600081519050919050565b600082825260208201905092915050565b6000610da982610dbc565b9050919050565b60008115159050919050565b600073ffffffffffffffffffffffffffffffffffffffff82169050919050565b6000819050919050565b82818337600083830152505050565b60005b83811015610e13578082015181840152602081019050610df8565b83811115610e22576000848401525b50505050565b60006002820490506001821680610e4057607f821691505b60208210811415610e5457610e53610e8b565b5b50919050565b610e6382610ee9565b810181811067ffffffffffffffff82111715610e8257610e81610eba565b5b80604052505050565b7f4e487b7100000000000000000000000000000000000000000000000000000000600052602260045260246000fd5b7f4e487b7100000000000000000000000000000000000000000000000000000000600052604160045260246000fd5b6000601f19601f8301169050919050565b7f4f6e6c792074686520676f7665726e6d656e742063616e2063616c6c2074686960008201527f732066756e6374696f6e00000000000000000000000000000000000000000000602082015250565b7f4c616e64207469746c65206e6f74207265676973746572656400000000000000600082015250565b7f41726561206d7573742062652067726561746572207468616e20300000000000600082015250565b7f4c616e64207469746c6520616c72656164792072656769737465726564000000600082015250565b610fcd81610d9e565b8114610fd857600080fd5b50565b610fe481610ddc565b8114610fef57600080fd5b5056fea264697066735822122025fb10bb235353ee5d50528ce9a240117afd8a3c4453c62c7e8eebb0743e473464736f6c63430008040033",
  "linkReferences": {},
  "deployedLinkReferences": {}
}